:030000000208D71C
:0C08D700787FE4F6D8FD75810702080068
:10080000E4F5A0C2902094057F311208C920950517
:100810007F321208C92096057F331208C9D290C2D0
:10082000912094057F341208C92095057F35120860
:10083000C92096057F361208C9D291C2922094052C
:100840007F371208C92095057F381208C920960500
:100850007F391208C9D292C2932094057F2A1208C8
:10086000C92095057F301208C92096057F231208FC
:10087000C9D2937F381208BB7F011208BB7F0612D2
:0F08800008BB7F0C1208BB7F811208BB02080364
:0E08BB008FA0C2B0C2B1D2B21208ACC2B2223B
:0E08C9008FA0D2B0C2B1D2B21208ACC2B2221D
:0E08AC00E4FFFE0FBF00010EBE27F8BF10F5DF
:0108BA00221B
:10088F00E4FFFE0FBF00010EEF64C84E70F5E4FFEA
:0C089F00FE0FBF00010EEF64C84E70F5A4
:0108AB00222A
:00000001FF
