:03000000020900F2
:0C090000787FE4F6D8FD7581090208003C
:10080000E4F5087F381208E41208D57F011208E4E5
:100810001208D57F061208E41208D57F0C1208E4EE
:100820001208D57F811208E41208D5C29020940BDB
:100830007F311208F21208D51208B820950B7F32CA
:100840001208F21208D51208B820960B7F3312084E
:10085000F21208D51208B8D290C29120940B7F34BE
:100860001208F21208D51208B820950B7F3512082D
:10087000F21208D51208B820960B7F361208F21231
:1008800008D51208B8D292C29320940B7F2A12087E
:10089000F21208D51208B820950B7F301208F21218
:1008A00008D51208B820960B7F231208F21208D53B
:0808B0001208B8D29302082BD4
:0E08E4008F09C2B0C2B1D2B21208D5C2B22280
:0E08F2008F09D2B0C2B1D2B21208D5C2B22262
:0F08D500E4FFFE0FBF00010EBE27F8BF10F52293
:1008B800E4FFFE0FBF00010EEF64C84E70F5E4FFC1
:0D08C800FE0FBF00010EEF64C84E70F52258
:00000001FF
